{
  "_format": "hh-sol-artifact-1",
  "contractName": "LeaseFactory",
  "sourceName": "contracts/LeaseFactory.sol",
  "abi": [
    {
      "inputs": [],
      "stateMutability": "nonpayable",
      "type": "constructor"
    },
    {
      "anonymous": false,
      "inputs": [
        {
          "indexed": true,
          "internalType": "address",
          "name": "leaseContract",
          "type": "address"
        },
        {
          "indexed": true,
          "internalType": "address",
          "name": "landlord",
          "type": "address"
        },
        {
          "indexed": true,
          "internalType": "address",
          "name": "tenant",
          "type": "address"
        },
        {
          "indexed": false,
          "internalType": "uint256",
          "name": "monthlyRent",
          "type": "uint256"
        },
        {
          "indexed": false,
          "internalType": "uint256",
          "name": "securityDeposit",
          "type": "uint256"
        },
        {
          "indexed": false,
          "internalType": "uint256",
          "name": "startDate",
          "type": "uint256"
        },
        {
          "indexed": false,
          "internalType": "uint256",
          "name": "endDate",
          "type": "uint256"
        }
      ],
      "name": "LeaseCreated",
      "type": "event"
    },
    {
      "inputs": [
        {
          "internalType": "uint256",
          "name": "",
          "type": "uint256"
        }
      ],
      "name": "allLeases",
      "outputs": [
        {
          "internalType": "address",
          "name": "",
          "type": "address"
        }
      ],
      "stateMutability": "view",
      "type": "function"
    },
    {
      "inputs": [
        {
          "internalType": "address",
          "name": "_landlord",
          "type": "address"
        },
        {
          "internalType": "address",
          "name": "_tenant",
          "type": "address"
        },
        {
          "internalType": "uint256",
          "name": "_monthlyRent",
          "type": "uint256"
        },
        {
          "internalType": "uint256",
          "name": "_securityDeposit",
          "type": "uint256"
        },
        {
          "internalType": "uint256",
          "name": "_startDate",
          "type": "uint256"
        },
        {
          "internalType": "uint256",
          "name": "_endDate",
          "type": "uint256"
        },
        {
          "internalType": "uint256",
          "name": "_gracePeriodDays",
          "type": "uint256"
        },
        {
          "internalType": "uint256",
          "name": "_lateFeePercentage",
          "type": "uint256"
        }
      ],
      "name": "createLease",
      "outputs": [
        {
          "internalType": "address",
          "name": "leaseAddress",
          "type": "address"
        }
      ],
      "stateMutability": "nonpayable",
      "type": "function"
    },
    {
      "inputs": [],
      "name": "getAllLeases",
      "outputs": [
        {
          "internalType": "address[]",
          "name": "",
          "type": "address[]"
        }
      ],
      "stateMutability": "view",
      "type": "function"
    },
    {
      "inputs": [
        {
          "internalType": "address",
          "name": "_landlord",
          "type": "address"
        }
      ],
      "name": "getLandlordLeases",
      "outputs": [
        {
          "internalType": "address[]",
          "name": "",
          "type": "address[]"
        }
      ],
      "stateMutability": "view",
      "type": "function"
    },
    {
      "inputs": [
        {
          "internalType": "address",
          "name": "_tenant",
          "type": "address"
        }
      ],
      "name": "getTenantLeases",
      "outputs": [
        {
          "internalType": "address[]",
          "name": "",
          "type": "address[]"
        }
      ],
      "stateMutability": "view",
      "type": "function"
    },
    {
      "inputs": [],
      "name": "getTotalLeasesCount",
      "outputs": [
        {
          "internalType": "uint256",
          "name": "",
          "type": "uint256"
        }
      ],
      "stateMutability": "view",
      "type": "function"
    },
    {
      "inputs": [
        {
          "internalType": "address",
          "name": "",
          "type": "address"
        },
        {
          "internalType": "uint256",
          "name": "",
          "type": "uint256"
        }
      ],
      "name": "landlordLeases",
      "outputs": [
        {
          "internalType": "address",
          "name": "",
          "type": "address"
        }
      ],
      "stateMutability": "view",
      "type": "function"
    },
    {
      "inputs": [],
      "name": "owner",
      "outputs": [
        {
          "internalType": "address",
          "name": "",
          "type": "address"
        }
      ],
      "stateMutability": "view",
      "type": "function"
    },
    {
      "inputs": [
        {
          "internalType": "address",
          "name": "",
          "type": "address"
        },
        {
          "internalType": "uint256",
          "name": "",
          "type": "uint256"
        }
      ],
      "name": "tenantLeases",
      "outputs": [
        {
          "internalType": "address",
          "name": "",
          "type": "address"
        }
      ],
      "stateMutability": "view",
      "type": "function"
    }
  ],
  "bytecode": "0x608060405234801561001057600080fd5b50600080546001600160a01b03191633179055611a39806100326000396000f3fe60806040523480156200001157600080fd5b50600436106200009f5760003560e01c80638f0d602a116200006e5780638f0d602a146200012e5780638f962adc1462000138578063be5f889d146200014f578063c7e882ff1462000161578063f08b6a03146200017857600080fd5b806307a7831914620000a4578063550252ac14620000d35780635797689414620001035780638da5cb5b146200011a575b600080fd5b620000bb620000b5366004620005a7565b6200018f565b604051620000ca9190620005cc565b60405180910390f35b620000ea620000e43660046200061b565b62000207565b6040516001600160a01b039091168152602001620000ca565b620000ea620001143660046200061b565b62000240565b600054620000ea906001600160a01b031681565b620000bb6200025d565b620000ea6200014936600462000648565b620002c1565b600154604051908152602001620000ca565b620000ea6200017236600462000662565b620002ec565b620000bb62000189366004620005a7565b62000506565b6001600160a01b038116600090815260036020908152604091829020805483518184028101840190945280845260609392830182828015620001fb57602002820191906000526020600020905b81546001600160a01b03168152600190910190602001808311620001dc575b50505050509050919050565b600260205281600052604060002081815481106200022457600080fd5b6000918252602090912001546001600160a01b03169150829050565b600360205281600052604060002081815481106200022457600080fd5b60606001805480602002602001604051908101604052809291908181526020018280548015620002b757602002820191906000526020600020905b81546001600160a01b0316815260019091019060200180831162000298575b5050505050905090565b60018181548110620002d257600080fd5b6000918252602090912001546001600160a01b0316905081565b600080898989898989898960405162000305906200057c565b6001600160a01b03988916815297909616602088015260408701949094526060860192909252608085015260a084015260c083015260e082015261010001604051809103906000f08015801562000360573d6000803e3d6000fd5b5090508091506001829080600181540180825580915050600190039060005260206000200160009091909190916101000a8154816001600160a01b0302191690836001600160a01b03160217905550600260008b6001600160a01b03166001600160a01b03168152602001908152602001600020829080600181540180825580915050600190039060005260206000200160009091909190916101000a8154816001600160a01b0302191690836001600160a01b03160217905550600360008a6001600160a01b03166001600160a01b03168152602001908152602001600020829080600181540180825580915050600190039060005260206000200160009091909190916101000a8154816001600160a01b0302191690836001600160a01b03160217905550886001600160a01b03168a6001600160a01b0316836001600160a01b03167fce0f332310016e145fe7b4dd7395578ebf2ecca0f1a3a21cd03abf773e471a2a8b8b8b8b604051620004f1949392919093845260208401929092526040830152606082015260800190565b60405180910390a45098975050505050505050565b6001600160a01b038116600090815260026020908152604091829020805483518184028101840190945280845260609392830182828015620001fb576020028201919060005260206000209081546001600160a01b03168152600190910190602001808311620001dc5750505050509050919050565b61133580620006cf83390190565b80356001600160a01b0381168114620005a257600080fd5b919050565b600060208284031215620005ba57600080fd5b620005c5826200058a565b9392505050565b6020808252825182820181905260009190848201906040850190845b818110156200060f5783516001600160a01b031683529284019291840191600101620005e8565b50909695505050505050565b600080604083850312156200062f57600080fd5b6200063a836200058a565b946020939093013593505050565b6000602082840312156200065b57600080fd5b5035919050565b600080600080600080600080610100898b0312156200068057600080fd5b6200068b896200058a565b97506200069b60208a016200058a565b979a9799505050506040860135956060810135956080820135955060a0820135945060c0820135935060e090910135915056fe60806040523480156200001157600080fd5b50604051620013353803806200133583398101604081905262000034916200033c565b6001600160a01b038816620000905760405162461bcd60e51b815260206004820152601860248201527f496e76616c6964206c616e646c6f72642061646472657373000000000000000060448201526064015b60405180910390fd5b6001600160a01b038716620000e85760405162461bcd60e51b815260206004820152601660248201527f496e76616c69642074656e616e74206164647265737300000000000000000000604482015260640162000087565b866001600160a01b0316886001600160a01b031603620001565760405162461bcd60e51b815260206004820152602260248201527f4c616e646c6f726420616e642074656e616e742063616e6e6f742062652073616044820152616d6560f01b606482015260840162000087565b60008611620001b45760405162461bcd60e51b815260206004820152602360248201527f4d6f6e74686c792072656e74206d75737420626520677265617465722074686160448201526206e20360ec1b606482015260840162000087565b60008511620002165760405162461bcd60e51b815260206004820152602760248201527f5365637572697479206465706f736974206d75737420626520677265617465726044820152660207468616e20360cc1b606482015260840162000087565b838311620002715760405162461bcd60e51b815260206004820152602160248201527f456e642064617465206d757374206265206166746572207374617274206461746044820152606560f81b606482015260840162000087565b6032811115620002c45760405162461bcd60e51b815260206004820152601a60248201527f4c617465206665652063616e6e6f742065786365656420353025000000000000604482015260640162000087565b600080546001600160a01b03998a166001600160a01b03199182161790915560018054989099169716969096179096556002939093556003919091556004556005556006919091556007556008805460ff19169055620003ad565b80516001600160a01b03811681146200033757600080fd5b919050565b600080600080600080600080610100898b0312156200035a57600080fd5b62000365896200031f565b97506200037560208a016200031f565b60408a015160608b015160808c015160a08d015160c08e015160e0909e01519c9f949e50929c919b909a509198509650945092505050565b610f7880620003bd6000396000f3fe6080604052600436106101445760003560e01c80637fbc3e4b116100b6578063dc1997ea1161006f578063dc1997ea14610364578063e4cbecdf14610384578063e64d45751461039a578063eaf3c0e5146103af578063ee0850e4146103c4578063f0df828c146103da57600080fd5b80637fbc3e4b146102cd578063a709c4fe146102e2578063adf07791146102ea578063b316fe8c14610322578063c24a0f8b14610338578063c47887aa1461034e57600080fd5b8063220e5ab311610108578063220e5ab31461025a5780632a2f7bda1461027057806347d05f47146102855780635c274b861461029c5780636f9fb98a146102a45780637aeabb39146102b757600080fd5b80630b97bc86146101ab5780630dc9ef3d146101d45780631348ed5e146101fe57806316c418e814610214578063200d2ed21461023357600080fd5b366101a65760405162461bcd60e51b815260206004820152602760248201527f557365207061794465706f7369742829206f722070617952656e7428292066756044820152666e6374696f6e7360c81b60648201526084015b60405180910390fd5b600080fd5b3480156101b757600080fd5b506101c160045481565b6040519081526020015b60405180910390f35b3480156101e057600080fd5b50600c546101ee9060ff1681565b60405190151581526020016101cb565b34801561020a57600080fd5b506101c160065481565b34801561022057600080fd5b50600c546101ee90610100900460ff1681565b34801561023f57600080fd5b5060085461024d9060ff1681565b6040516101cb9190610e5b565b34801561026657600080fd5b506101c160035481565b34801561027c57600080fd5b506101c1610450565b34801561029157600080fd5b5061029a610482565b005b61029a6105d2565b3480156102b057600080fd5b50476101c1565b3480156102c357600080fd5b506101c1600a5481565b3480156102d957600080fd5b5061029a610717565b61029a610823565b3480156102f657600080fd5b5060015461030a906001600160a01b031681565b6040516001600160a01b0390911681526020016101cb565b34801561032e57600080fd5b506101c1600b5481565b34801561034457600080fd5b506101c160055481565b34801561035a57600080fd5b506101c160075481565b34801561037057600080fd5b5060005461030a906001600160a01b031681565b34801561039057600080fd5b506101c160025481565b3480156103a657600080fd5b506101c1610ae5565b3480156103bb57600080fd5b506101ee610b0b565b3480156103d057600080fd5b506101c160095481565b3480156103e657600080fd5b506103ef610b15565b604080516001600160a01b039c8d1681529b909a1660208c0152988a01979097526060890195909552608088019390935260a087019190915260c086015260e085015260ff16610100840152610120830152610140820152610160016101cb565b600060055442106104615750600090565b62015180426005546104739190610e99565b61047d9190610eb2565b905090565b6000546001600160a01b03163314806104a557506001546001600160a01b031633145b6104f15760405162461bcd60e51b815260206004820181905260248201527f4f6e6c79206c6561736520706172746965732063616e2063616c6c2074686973604482015260640161019d565b60018060085460ff16600381111561050b5761050b610e45565b146105285760405162461bcd60e51b815260040161019d90610ed4565b6000546001600160a01b0316330361054c57600c805460ff1916600117905561055c565b600c805461ff0019166101001790555b604080513381524260208201527fe1ca44b36591f980590922f9033ced047b54ecb7337d7790ca786c9c5fb7b4d7910160405180910390a1600c5460ff1680156105ad5750600c54610100900460ff165b156105cf57600880546003919060ff19166001835b02179055506105cf610bad565b50565b6001546001600160a01b031633146106285760405162461bcd60e51b81526020600482015260196024820152784f6e6c792074656e616e742063616e2063616c6c207468697360381b604482015260640161019d565b60008060085460ff16600381111561064257610642610e45565b1461065f5760405162461bcd60e51b815260040161019d90610ed4565b60035434146106c05760405162461bcd60e51b815260206004820152602760248201527f4d7573742073656e64206578616374207365637572697479206465706f73697460448201526608185b5bdd5b9d60ca1b606482015260840161019d565b6008805460ff1916600117905542600a81905560408051338152346020820152908101919091527f86e2ccfbb89118d61004040ebadc692938260eae74726facf02838e9de26b8fd9060600160405180910390a150565b6000546001600160a01b031633148061073a57506001546001600160a01b031633145b6107865760405162461bcd60e51b815260206004820181905260248201527f4f6e6c79206c6561736520706172746965732063616e2063616c6c2074686973604482015260640161019d565b60018060085460ff1660038111156107a0576107a0610e45565b146107bd5760405162461bcd60e51b815260040161019d90610ed4565b60055442101561080f5760405162461bcd60e51b815260206004820181905260248201527f4c65617365206475726174696f6e20686173206e6f7420656e64656420796574604482015260640161019d565b600880546002919060ff19166001836105c2565b6001546001600160a01b031633146108795760405162461bcd60e51b81526020600482015260196024820152784f6e6c792074656e616e742063616e2063616c6c207468697360381b604482015260640161019d565b60018060085460ff16600381111561089357610893610e45565b146108b05760405162461bcd60e51b815260040161019d90610ed4565b600254341461090d5760405162461bcd60e51b815260206004820152602360248201527f4d7573742073656e64206578616374206d6f6e74686c792072656e7420616d6f6044820152621d5b9d60ea1b606482015260840161019d565b60055442111561095f5760405162461bcd60e51b815260206004820152601760248201527f4c656173652068617320616c726561647920656e646564000000000000000000604482015260640161019d565b6000610969610dd4565b156109dc5760646007546002546109809190610f18565b61098a9190610eb2565b905080600b600082825461099e9190610f2f565b9091555050604080518281524260208201527f931c9d120fb8e96d054fa3229bc79c810d1a2a83e34cb2d2460a3e211d815d7d910160405180910390a15b34600960008282546109ee9190610f2f565b909155505042600a55600080546040516001600160a01b039091169034908381818185875af1925050503d8060008114610a44576040519150601f19603f3d011682016040523d82523d6000602084013e610a49565b606091505b5050905080610a9a5760405162461bcd60e51b815260206004820181905260248201527f52656e74207472616e7366657220746f206c616e646c6f7264206661696c6564604482015260640161019d565b604080513381523460208201529081018390524260608201527f2d2423890bc33b8290b6bf4c590927cc8a367ef6c70744a602984e45a4bf11779060800160405180910390a1505050565b6000610aef610dd4565b610af95750600090565b60646007546002546104739190610f18565b600061047d610dd4565b60008060008060008060008060008060008060009054906101000a90046001600160a01b0316600160009054906101000a90046001600160a01b0316600254600354600454600554600654600754600860009054906101000a900460ff166003811115610b8457610b84610e45565b600b546009549a509a509a509a509a509a509a509a509a509a509a50909192939495969798999a565b600b54479081811115610bbd5750805b6000610bc98284610e99565b9050600260085460ff166003811115610be457610be4610e45565b03610c2d576040805182815260208101849052428183015290517f1b08d8307d37d3527b2eac4f82606fe99d47d725bea1831b1be13dfd146e85e39181900360600190a1610c6d565b6040805182815260208101849052428183015290517fd4601b73eee31e0d674c01fefb79c69491ef900b952a93cde93e9019f3ebe4aa9181900360600190a15b8115610d2457600080546040516001600160a01b039091169084908381818185875af1925050503d8060008114610cc0576040519150601f19603f3d011682016040523d82523d6000602084013e610cc5565b606091505b5050905080610d225760405162461bcd60e51b815260206004820152602360248201527f50656e616c7479207472616e7366657220746f206c616e646c6f7264206661696044820152621b195960ea1b606482015260840161019d565b505b8015610dcf576001546040516000916001600160a01b03169083908381818185875af1925050503d8060008114610d77576040519150601f19603f3d011682016040523d82523d6000602084013e610d7c565b606091505b5050905080610dcd5760405162461bcd60e51b815260206004820152601f60248201527f4465706f73697420726566756e6420746f2074656e616e74206661696c656400604482015260640161019d565b505b505050565b6000600160085460ff166003811115610def57610def610e45565b14610dfa5750600090565b600a54600003610e0a5750600090565b6000600a5462278d00610e1d9190610f2f565b9050600060065462015180610e329190610f18565b610e3c9083610f2f565b42119392505050565b634e487b7160e01b600052602160045260246000fd5b6020810160048310610e7d57634e487b7160e01b600052602160045260246000fd5b91905290565b634e487b7160e01b600052601160045260246000fd5b81810381811115610eac57610eac610e83565b92915050565b600082610ecf57634e487b7160e01b600052601260045260246000fd5b500490565b60208082526024908201527f496e76616c6964206c656173652073746174757320666f7220746869732061636040820152633a34b7b760e11b606082015260800190565b8082028115828204841417610eac57610eac610e83565b80820180821115610eac57610eac610e8356fea264697066735822122016bbe19a11e87f54d0698a58a80a71e8c5bfab702d0b81a6608a4136c6d9d58f64736f6c63430008140033a26469706673582212205641786b7e317301d359399965c0f07fecffb2c1277d2bec433a090572398afc64736f6c63430008140033",
  "linkReferences": {},
  "deployedLinkReferences": {}
}